:020000040000fa
:080000000002040000000000f2
:020000040000fa
:10040000afd126000e7f27000e01880000000000fb
:100410000c000700a08c2300210020000f00070023
:10042000000020000000e000020032000000020096
:1004300000000000f8130200020000000040da0093
:100440000000fe00206f21000000e00002003200ea
:10045000002020009001880000000600a102880012
:10046000800078000000eb001a003700e2804000b6
:1004700054a0b4009101ba00e280400054a0b4003e
:100480009102ba00e280400054a0b4000002eb00e8
:10049000472bde00f507b200a6018800602ce100c2
:1004a00008003a000049eb000201e80002003900b0
:1004b0003420ec0002f0a0008301e900f9ff3e00c7
:1004c000040037006128e100010032000082eb00e7
:1004d000040007001101ba000200e000e3ff3a0047
:1004e0000000060004d0a300e20f49001c00390000
:1004f000810278003549ba000201e80002003900a3
:100500003420ec0002f0a0008301e9000f0032006b
:100510002549ba000201e800020039003420ec004d
:1005200002f0a0008301e900080032000400e000ae
:100530000600320015c9ba000201e80002003900c5
:100540003420ec0002f0a0008301e9008180e80083
:1005500054a0b4000300e000e2ff3a0000000600ef
:100560009102ba00055978008301e900f7ff3200d3
:10057000c82ade00055978008301e900f3ff320044
:100580000400e000f1ff320011d9ba00eeff37009d
:100590000040da000000fe0022c2bf0061006000df
:1005a0000000060032c2bf006100600000000600cb
:1005b00052c2bf006100600000000600b2c2bf006e
:1005c000610060000000060020c2bf0066406000bd
:1005d000e64f500002003a00301180000000060093
:1005e00030118000f00fb2000000060030c2bf00e2
:1005f00066406000e64f500002003a00b0118000f3
:1006000000000600b0118000f00fb20000000600ec
:1006100050c2bf0066406000e64f500002003a0042
:10062000b012800000000600b0128000f00fb2008f
:1006300000000600b0c2bf0066406000e64f5000f8
:1006400002003a00b015800000000600b0158000de
:10065000f00fb200000006008000780020c2bf004a
:1006600066406000e64f500001003200f10fb2001a
:1006700021118800000006008000780030c2bf0011
:1006800066406000e64f500001003200f10fb200fa
:10069000a1118800000006008000780050c2bf0051
:1006a00066406000e64f500001003200f10fb200da
:1006b000a11288000000060080007800b0c2bf00d0
:1006c00066406000e64f500001003200f10fb200ba
:1006d000a115880000000600320020005e003700ef
:1006e00003f0a200889fbe008a9fbe008c1f780086
:1006f000bb010700c20133006450e1004f0032002b
:100700006420e1005200320003826c0007003b00cd
:100710000905d0000306d000820f54000c065d00ce
:1007200002003900020032008901780003067800d7
:100730008582550004003d000003fd008103fd009b
:100740008502ea008b854200840f720002003b00a4
:1007500060001000e08018006011b8000005eb0098
:100760007a28e1000a00390006007800c75ddd0044
:10077000f707b200878075002d0037008281710075
:100780000a017800610560008180d1000080d300fb
:100790008502e900f9ff3b00060440008784480019
:1007a00002003b0060041400e0841c000988a300e0
:1007b000070032008a81710082817100610164004a
:1007c0008904d1000884d3008b05e80017003700a6
:1007d0000978a30013003a000b00e0001300340076
:1007e0008b05e9000804440089844c000a44740025
:1007f0000978a3000d003a000b00e0000700340068
:100800008b05e9000804440089844c0001003a008b
:100810000b0020000978a300f7ff32000001eb0075
:1008200002003700828171000a017800310107005f
:100830000cf0a70001f0a0007a0137006420e1006d
:1008400002003a00838f6c007a0133000801be0079
:100850000200be0073013700889fbe008a9fbe0061
:100860008c9fbe000206780001f0a7000cf0a000eb
:100870000004be00450107000800be006420e1003e
:100880000700390002003a00f1ff2700f0ff2f00b7
:100890000160a00012022000028088005100370091
:1008a00009f0a1000800be000200200003f82300a8
:1008b000a7000700f4ff3c000800be000200200073
:1008c00003982300a00007000800be003000350098
:1008d0000200200003f023009d00070005003c00fb
:1008e0000800be000801be00550107000005be005b
:1008f0000e0037000c10a2000000200001f82300b9
:100900000801be0076ff07000200200003f023006c
:100910004b0107000005be00e801070002002000af
:1009200003002c00460107000004be000a00be00c0
:10093000b2d02800130b2c006aff07000a01be008a
:100940003f010700020f2500330b240065ff07005d
:10095000809fbe000a00be005206220013f02b004a
:1009600037010700b2662100f3f623005dff0700a0
:100970000a01be00320107004f01be00210007003e
:100980000801be002e0107000801be0055ff070048
:100990000c00a70007003700b2fd200093fc2300e5
:1009a0000c10a7004fff07000cf0a70001f0a200f9
:1009b0000c0037000cf0a7000200370001f0a20085
:1009c00004003700b2fd2000930424000c10a600a0
:1009d00003003700b2fd200093fc23000c10a70099
:1009e00040ff07004f06be004f05be004f04be008b
:1009f000000006000001eb0097ff37000081eb00cc
:100a000043013700889fbe008a9fbe008c1f78007c
:100a1000f3000700fa00330003866c006450e10025
:100a20002e0032006420e100330032006150e1000a
:100a30002f0032006120e100310032008585550031
:100a4000eb07b00009002000080420000500370073
:100a50000804440089844c000a0031000603430066
:100a600087834b000001530081815b00f8ff330056
:100a70000203be000800a0000804440089844c0062
:100a8000f6ff3900c639dd00830173000100320032
:100a9000130020008904d1000884d3000998a30022
:100aa000050032000800a7000300a0008904d1005f
:100ab0000884d3008b05e8008904d1000884d300a2
:100ac0000001eb000281d2008a00070001f0a100c2
:100ad0000cf0a70001f0a000d20037006420e10074
:100ae000d40032000801be000200be00f7ff37004c
:100af0006120e100cf0032006000b800f3ff370052
:100b00000000200001f82700f0ff3700839f6800f5
:100b10000100e00002003d0060001000e0801800cd
:100b20000300e00002003d0060011100e0811900b7
:100b3000970107004f00e00002003b00600010003a
:100b4000e080180000000600140020008502370035
:100b5000f4ff2f00830237000001be008b00070066
:100b60000470a70003f0a1006509b100160032006f
:100b70000d0035006828e10006003500f0ff2f0069
:100b8000f1ff27000300e00013003b0001002800f4
:100b90000000050000004000818048008502e90057
:100ba000fcff3a0008003700f88f420002003c00ca
:100bb0008000eb00000005008100d1000080d30020
:100bc0008502e800fcff3a000300e00002003b0061
:100bd00060001000e0801800000006000001be0068
:100be0006a0007000470a70003f0a10003f8a30047
:100bf00013003a006509b100100032000900350009
:100c00006928e1000200350001002800000005000d
:100c100000004000818048008502e900fcff3a00a6
:100c200000000600f88f4200050035008100d10069
:100c30000080d3008502e800fcff3a0000000600b7
:100c40008000eb0000000500889fbe008a9fbe0068
:100c5000010578000100e0000400350008003c00b8
:100c60000000e000200032000500370060001000a6
:100c7000e080180002003b0001f02c001a00370051
:100c80000004be006011b8006b0920000982cf008b
:100c9000020039000882cf000441b00069425200ce
:100ca0000e00320008003b00828171006101640087
:100cb0008904d1000884d3008b05e8000442e800d1
:100cc000f9ff3a00050037000804440089844c000d
:100cd0008b05e9000442e900fbff3a00050007002c
:100ce0000af0a70001f0a0004f05be004f04be00af
:100cf0000000060081002000618055000b003d00cf
:100d00000b00200061fe2f000100e1001d003400f7
:100d100082817100610164008904d1000884d300dc
:100d20000000e800faff3a00710020006100640052
:100d300003007000020060000900320061044400fa
:100d4000e0844c000988a500050032008b05e8000e
:100d50006808e10002003a008904d1000884d30049
:100d6000f20f20000258e10005003d00c75ddd00e4
:100d7000f907b200898075000800780000000600bd
:100d80000bf827008b00780000000500c70ade0082
:100d9000f107b200f50fb20008003200e1cf4200c7
:100da000020032000170a00024000500810f7000d5
:100db000010032000408050044000500810f7000a6
:100dc00002003a00140005008502e900000040001e
:100dd00081c04800fcff3b000170a000240005001a
:100de0000004be00e9ff07000003be000405be00ca
:100df0000200be00e5ff0700844f750000000600fa
:100e00000200be006450e100050036006420e100ed
:100e1000020036000968a30001003a000800be0085
:100e20000160a0004f0678004f05be004f04be00d1
:100e300000000600f0ff2f00f1ff2700f9ff370048
:100e4000889fbe008a9fbe008c1f7800e4ff0700c9
:100e5000ebff330003866c006450e1002400320095
:100e60006420e100270032006150e10022003200de
:100e70006120e100210032008b854200eb07b100c8
:100e80000134b800003ab8000804420089844a00de
:100e9000013ab8000030b8008880400009014a00db
:100ea0000400330000004000818048000201490036
:100eb0008b05e900c909dd008301700001003200e3
:100ec00013002000c814de004814dd004709de00ce
:100ed0001200b200c808de000884700085ff070019
:100ee00001f0a1000cf0a70001f0a000cdff370039
:100ef0006120e100cfff32000801be000200be0009
:100f0000f7ff37006150e100fcff3a00c9ff3700ee
:100f1000889fbe008a9fbe008c9fbe00820578001d
:100f20000004be0099ff07000800be006420e10035
:100f30000700390002003a00f1ff2700f0ff2f0000
:100f40000160a000120220000280880055003700d6
:100f50006120e10003003a000b00a70001f8230024
:100f60005000370001f0a10002002100936424002a
:100f7000f5fe07000800be0004003500b2fd2000a9
:100f8000930c2400920107000004be000005eb0052
:100f90000b00a6004f0dde0001f0a1000004be0012
:100fa00032982f0023ea2300a5ff07000001eb0081
:100fb00003f023000b00a70003f82300c9fd07007e
:100fc000e5fe07000000a7000a00a2001eff0700c0
:100fd0000b00e000030032000200200003f02300b9
:100fe000bffd070001f0a2000006be0002002000c5
:100ff0009304240092ff07000801be00b9fd07001a
:10100000809fbe000c00be0022a22a00d3a72300ae
:101010008bff07004f01be00b2fd07000004be00b9
:1010200001f0a1000200200003982300c6fe070083
:101030000800be00190035000001be0080ff070057
:101040000006be00b2c52900e36223007cff070052
:1010500022222b00f3942b00a2fd07000c01be00fe
:1010600077ff0700e273280083c023009dfd07007f
:101070000c01be0072ff070042aa2a00a3e22b0067
:1010800098fd07000c01be006dff07000801be00bf
:101090006bff07000801be0092fd07000a00a700d1
:1010a00001f0a2004f06be004f05be004f04be0077
:1010b000000006000001eb0095ff3700889fbe008e
:1010c0008a9fbe008c1f78000004be002fff07001f
:1010d0000478a30026003a006120e10025003200d8
:1010e00009f8a30025003a006420e1002100320045
:1010f000f507b1000508a30002003200000040001f
:10110000818048006044b8000310200002002000e5
:1011100000004000818048000805440089854c009b
:101120000a0541008b8549000a0550008b8558004f
:10113000030033000a00be000204740083847400bc
:101140008301d1000281d300830f7100f0ff3a00c8
:101150008904d1000884d30060014900820178002d
:10116000c1adde00fb07b000e2fe07002dff370037
:101170000960a0000800be002aff3700120220000c
:1011800002808800f0ff2f00f1ff270025ff3700c5
:101190006022b800060220000000d0008180d2004a
:1011a0000482d2008582d2000000a0000202520018
:1011b00083825a00030031000202420083824a0007
:1011c0000000a1000603e900f3ff3a00000006005a
:1011d000efff07000400be0000000600020ab9008d
:1011e000001bb9000200b8008100420081004300ea
:1011f00000000600881f7800000478005001be003f
:101200004000be00040040008580480006014900ff
:1012100087814900009cbe000294be000400e100ea
:101220000588e1000690e1000798e1000200310026
:10123000680044001008e8004f0478000000060031
:10124000f4874700889fbe008a9fbe008c9fbe0027
:101250008e1f78000205be000004be00d4b79f00b8
:10126000e5b79f00f6b79f0087bf9f000000eb0027
:10127000c0b79f00b0b79f00a0b79f0090b79f0076
:1012800080b79f000d042000bfb097004fb09700bb
:10129000000140000000e0000f003d004f08de00ac
:1012a00000007100c0b79f004d00070001003d0025
:1012b000120020005000070001003d001200200035
:1012c0005500070061000700660007000f0040009e
:1012d000c8ff0700220037004f08de00000671003b
:1012e000ccb79f003e00070001003d001200200027
:1012f0004100070001003d001200200046000700e9
:10130000520007000fb297009fb297002fb39700cb
:10131000bfb39700590007000000520081805a00b7
:1013200002015b0083815b0080b79f0091b79f0043
:10133000a2b79f00b3b79f000007eb004f00070064
:101340000020e10001a8e10002b0e10003b8e100e3
:10135000010031001e0020000e005600c0b79f00a3
:101360004fb297000400e000070035001000200095
:10137000010020006011b80008047000898470002a
:101380000a0571008b8571008d06e900beff3a00e9
:101390000400e00003003d00320007000f004000a1
:1013a00094ff07004fa897000000e00004003a00f7
:1013b0000fb497009fb497002fb59700bfb5970063
:1013c0000800be000a01be004f0778004f06be00ad
:1013d0004f05be004f04be004f01b10000000600e3
:1013e0000180400090b79f000001eb008fb0970094
:1013f0000100e000000006000200700090b79f00ae
:101400000180400080b79f000001eb00ffa897001b
:101410000100e000000006000200700080b79f009d
:10142000018040006faa9700cf20de00010070000d
:10143000f0af9f00040242000800be000a01be0097
:101440004f18de000002720000000600e4af9f00ab
:101450000804440089844c000a054d008b854d002a
:10146000000006003fb29700cfb297005fb397002d
:10147000efb3970000fe2f00000006003fb097007a
:10148000cfb097005fb19700efb197000000060062
:10149000881f780018002000881f780068ff070068
:1014a0008f87e9004f04780000000600889fbe0087
:1014b0008a9fbe008c1f78000205be000004be009b
:1014c0000006eb00e00f5000e08f5800e00f5900dd
:1014d000e08f590007003d006000b8006011b800bf
:1014e00008045000898458000a0559008b8559006a
:1014f0001c002000e00f5200e08f5a00e00f5b005c
:10150000e08f5b0002003d000f0007000c00a2000e
:101510000800be000a01be007e0007000203be00f4
:101520000002be000c00e0000100320006000700cf
:101530000400be000601be004f0678004f05be0045
:101540004f04be00000006006000b8006011b80043
:101550000402500085825800060359008783590011
:1015600000000600889fbe008a9fbe00841f78008e
:101570001bfe07004f00780011003300f0ff2f0022
:10158000838f6c0006003b00040565000a00a7007d
:101590000800370009f0a6001000200008003700fe
:1015a000820f5400838f5c0003003900100020007c
:1015b00001003e000000200009f0a7000000ea0042
:1015c0004f05be004f04be000000e0000000060012
:1015d0000400200000003700889fbe008a9fbe00e4
:1015e0008c1f78004f26dd00fdfd070004fe330050
:1015f0006120e100430032006250e10041003e0002
:101600003e0039006420e1003c00320005825500b4
:101610000f003b000402e80038003a00800f53003e
:10162000818f5b00350034000800be0003f0a1008c
:1016300001f0a60003f0a0000cf0a70029fc0700b1
:10164000f8fd37000603430087834b000c46460035
:101650000005530081855b00020033000a03be00d1
:101660000c00a0000402e900f6ff3b0085057800ad
:101670000602430087824b0004003a006000b80075
:1016800009f0a70001f0a000e6fd370000025200bb
:1016900081825a000704e00004003300060343007f
:1016a00087834b008b05e900faff370009057800b6
:1016b0000604be000203be006011b8008dfd0700e5
:1016c000e00f5200e08f5a000700350002003c0096
:1016d0000c08a300040032000601be0003f0a000c5
:1016e0000cf0a700fffb07000a85680001f0a100cd
:1016f0000af0a70001f0a000cafd37000800be00f4
:10170000c8fd3700100220000cf0a6000080880001
:10171000c8fd3700889fbe008a9fbe008c9fbe0018
:101720000404b8000506b8008904460060854e0030
:101730000606b8000a054600e0854e000706b80018
:101740008b054600040eb800890446000a854e0049
:10175000e0854d00050eb8000a0546008b854e0059
:10176000060eb8008b0546000416b8000a054600b0
:101770008b854e000516b8008b054600041eb80088
:101780008b0546000800be000a01be004f06be00e1
:101790004f05be004f04be000000060000027800a6
:1017a000808f50000a00310082814000808f5100fc
:1017b00007003600020240008000eb004362780020
:1017c0008100e800828f500007003200fbff3700e5
:1017d0000200e0000400320002814000315a78002b
:1017e000828f5000fdff3a00000006008001780063
:1017f00000017800010037000201e8001204e00057
:10180000fdff3a0031407800005978000004e00004
:10181000fcff3a0003007800000006001041780049
:10182000814f5100040032000000e8000204e00093
:10183000faff3a000000eb0000000600800078008c
:101840003004e000feff3a00010050000000e90013
:1018500000000600889fbe000004be000d00370097
:1018600009007800f5ff0700000178000800be00bd
:101870000f0007000000e00002003a0008007800b6
:10188000090037009900fb000800e800e3ff0700ab
:10189000000478000800e000020032001804e000b4
:1018a000efff3a000000eb004f04be00000006000e
:1018b000810178000002eb000c00370090407800b6
:1018c0000104e000030032000402e80093cf50005e
:1018d000040032008180fb001380fb000080500078
:1018e000000006000000e8008301e800820f5200bb
:0818f000f2ff3a0000000500c0
:020000040000fa
:0200000401f009
:04000800fdff0000f8
:020000040000fa
:0200000401f009
:04000c0078ff000079
:020000040000fa
:0200000401f009
:040010005dff000090
:020000040000fa
:0200000401f009
:040014006eff00007b
:020000040000fa
:0200000401f009
:04001800ffff0000e6
:020000040000fa
:0200000401f009
:04001c00dbff000006
:020000040000fa
:0200000401f009
:04002000cfff00000e
:020000040000fa
:100008006e23000078230000c8020000842300004b
:10001800902300009a230000c8020000c8020000d4
:10002800c8020000c8020000c8020000028f0100d8
:10003800c8020000c8020000c802000072290000bf
:1000480074260000c8020000c8020000b2230000a5
:100058000e240000c8020000c8020000c802000008
:10006800c8020000c80200002826000098290000e5
:100078008c900100c8020000c8020000c8020000fd
:10008800c8020000c8020000c802000040270000a3
:1000980070280000c80200004a240000ca2400009a
:1000a800c8020000c8020000c8020000fe2c0200be
:1000b800c8020000c8020000c8020000c802000010
:1000c800c8020000c8020000c8020000c802000000
:1000d800c8020000c8020000c80200005026000044
:1000e8008a280000c8020000c8020000704c010005
:1000f800c8020000c8020000c8020000c8020000d0
:10010800a2320200c8020000c8020000c8020000b3
:10011800c8020000c8020000c8020000c8020000af
:10012800c8020000c8020000c8020000c80200009f
:10013800c8020000c8020000c8020000c80200008f
:10014800c8020000c8020000c8020000c80200007f
:10015800c8020000c8020000c8020000c80200006f
:10016800c80200006025000048f0010012250000c8
:10017800c8020000c8020000c8020000c80200004f
:1001880084250000ec250000c8020000c802000019
:10019800c8020000c8020000c8020000c80200002f
:1001a800c8020000c8020000c8020000c80200001f
:1001b800c8020000c8020000c8020000c80200000f
:1001c800c8020000c8020000c8020000c8020000ff
:1001d800c8020000c8020000c8020000c8020000ef
:1001e800c8020000c8020000c8020000c8020000df
:1001f800c8020000c8020000c8020000c8020000cf
:10020800c8020000c8020000c8020000c8020000be
:10021800c8020000c8020000c8020000c8020000ae
:10022800c8020000c8020000c8020000c80200009e
:10023800c8020000c8020000c8020000c80200008e
:10024800c8020000c8020000c8020000c80200007e
:10025800c8020000c8020000c8020000c80200006e
:020000040000fa
:1018f800636100007463000068000000114000008c
:1019080008000000380e0000fc96000022220000ab
:1019180020ff0000113000000c0000000000000053
:1019280000000000000000000000000000000000af
:10193800000000001123000007000000010500005e
:101948000b05000002000000031100002204000043
:1019580000200000143200005d110000210c00007e
:1019680018dd0000ced60000e6f6000000030000f7
:1019780003150000f03f000000110000210c0000da
:101988000c03000003150000f03f0000007e00007b
:10199800641b0000ba5800000b110000210c000065
:1019a800007e0000641b0000ba5800000bdd000038
:1019b800ced60000e6f6000000110000200100006d
:1019c8005108000011200000014e000040110000e5
:1019d800200b000042a4000003d600000301000011
:1019e8003f01000080ff00000c00000011200000f3
:1019f80009380000220b00000b0000000240000024
:101a080000000000281100002001000035e200005d
:101a180011200000072c000000230000ca3d000030
:101a280000cd0000e01100002009000022000000a5
:101a3800640500001eb80000051f00000200000039
:101a48001120000008180000010000000803000031
:101a5800c00000000030000011200000010c000050
:101a68007b110000200c00000002000000070000ad
:101a78002dc60000c0010000c9c30000800000009e
:101a880014110000120100002000000011120000d3
:101a98000c1400000000000000000000000000001e
:101aa800000000000000000000000000111200000b
:101ab8000106000040110000120c000008000000a0
:101ac80000000000303000000000000004000000aa
:101ad80000000000001100001204000003ff0000d5
:101ae800ff00000002110000120100000080000049
:101af800111100000100000002110000100900008f
:101b080000050000140000000f3100000000000074
:101b180000000000110200000400000000000000a6
:101b28000000000011010000040000000330000064
:101b38000100000011000000010300006011000016
:101b48000001000001680000110000000100000011
:101b580052130000070800002021000027000000a1
:101b6800000200000100000001c90000c38000005d
:101b780044200000000000000001000000000000f8
:101b88000a0b00000c0d00000b0200000a01000007
:101b98000508000006070000000e0000090d0000ff
:101ba800040c00000f0300000d080000050a0000e7
:101bb8000f000000060400000e07000002010000ec
:101bc800030900000b0c0000030400000a090000d0
:101bd8000c0200000b000000080f0000010e0000be
:101be800050d0000070600000e0a000008040000aa
:101bf800030b00000902000000010000070d0000af
:101c0800050c0000060f0000010300000a0e00008a
:101c18000c07000005000000020f00000b08000080
:101c2800060d000009040000030b00000402000078
:101c38000c0a0000090d0000000700000e08000053
:101c480001050000060f000000000000ff00000072
:101c580000000000000000000000000090000000ec
:101c68000000000000000000f0000000300000004c
:101c780060000000500000002099000046bc0000f1
:101c88009837000090bc0000b37b00008ebc0000b9
:101c9800c8100000beba00003b2800000d3d00003f
:101ca800d6710000b13d0000d0570000123e000080
:101cb80008fa00003e3e000087cc00004f3e0000be
:101cc800bbc60000063c0000ebbd0000953c0000d0
:101cd80040140000723a0000fd04000008bd000036
:101ce800700800005ebd00007aaa000069bb000011
:101cf800568c0000013e000024fb00008b3e0000d3
:101d0800b2f10000ac3e0000db880000a13b0000ff
:101d1800204b00005fbc00004620000062bc0000b1
:101d28005d9f0000093d0000ade60000ac3c0000ee
:101d380015c00000aebd0000c3300000e1bc0000cb
:101d4800bf2400009f3e0000c3a50000073f00001d
:101d5800903a0000e73b0000bc390000a8bc000036
:101d680086d60000b43c0000568c000050bc000031
:101d7800274d0000c0bc000039690000a43d0000e8
:101d8800b1dd000015be0000e6a100004b3e0000da
:101d980054e30000473f000030fb0000ecbb0000ac
:101da800548700008dbb00007015000088ba000041
:101db800b5c40000b03b0000ae1800004a3c00006b
:101dc800916f00007d3c000053ba0000313c0000d8
:101dd8007c8d000026bb0000f0230000abbc000097
:101de8004685000012bd00005357000016bd0000d4
:101df800cad500007ebc0000e84c0000ef3c0000a3
:101e08001a1d0000b93d0000470100001d3e0000fa
:101e18006d6500004d3e0000735b00005f3e0000f2
:101e2800fec30000953b000070490000cb3900005c
:101e3800fcc20000fbbb00003c030000513b00005b
:101e4800e33a0000283c0000a2c10000d0bb00001b
:101e5800f75d000080bc0000621f0000703c0000bd
:101e6800c5e50000a13c00007a9f0000dbbc000033
:101e7800aec50000c9bc0000fc3700004a3d0000a8
:101e880013f90000e43c0000c92b0000c6bd0000a7
:101e9800bf980000fabc0000f9670000a13e0000ee
:101ea8002afd0000073f00000d0a000073740000bf
:101eb80061720000746900006e67000020770000fe
:101ec8006f7200006b00000000630000736e00007a
:101ed8006600000073610000656e00000064000089
:101ee800647500006e0000007773000073770000cf
:101ef8007400000073730000657400000072000035
:101f0800756e000063000000736c000070740000c0
:101f1800007400006c740000723b00000073000045
:101f28007276000072000000647500006c75000095
:101f38000063000066720000710000006363000027
:101f48006f660000006f000072710000656e00008f
:101f580000740000656e0000007400006c730000df
:101f6800743b00000066000072740000723b0000c1
:101f7800006900006f72000073740000006f0000b9
:101f8800706c000073000000647300006967000053
:101f980000640000666c0000743b000000690000eb
:101fa800667500006e000000647300006574000030
:101fb800007400006c7400006d7200000063000083
:101fc8006c62000072000000617300006f70000016
:101fd800006900006d730000690000006f70000068
:101fe8006f6c0000006900006e7000006f6c0000ec
:101ff8000077000062730000610000007365000054
:1020080076740000006600006c6500006e00000039
:102018006d6d0000736700000072000072660000ba
:10202800656e0000006c00006d6400007300000025
:1020380072700000747200000062000063680000a3
:1020480072670000007400007365000074000000ef
:102058006c7300006e660000620000006c73000084
:102068006e660000006d0000726c0000656e000076
:10207800006c00006e64000061740000006c0000d9
:10208800626c0000726e0000006c00006265000067
:102098006e0000007773000065740000006f000098
:1020a800667500006e0000006c620000646100004c
:1020b800740000006c6c0000646100007400000093
:1020c800776200007366000000660000657100001a
:1020d800006c00007365000074000000637200006b
:1020e80074790000700000006363000066670000f8
:1020f8000073000065740000736c0000700000003d
:10210800707300006c7000003d00000075730000e3
:102118006c7000003b00000069760000666c0000ef
:10212800006900006e73000065740000006700001d
:102138006f6400006f0000006372000071640000ab
:102148006174000000630000727100007365000094
:1021580074000000646400006973000000730000ec
:10216800737100006e3b0000007300006d73000087
:10217800643b0000007400006d73000067000000fd
:10218800706800006e730000007700006273000042
:10219800770000007762000073740000006300009d
:1021a80072730000683b0000007300006d7300004c
:1021b800670000006d73000065740000006d00008a
:1021c8006461000074000000616c00006365000039
:1021d8006e000000617200006d6500006e00000076
:1021e800726500006e3d0000006800006665000032
:1021f8006e3d00000074000064690000733d00003b
:1022080000740000646500006c3d0000007400006c
:102218006c7200006e3b0000007200006c720000df
:102228006e3b0000006f0000626c00006b3d000018
:1022380000720000626c00006b3d0000007200003c
:1022480073650000743d00000066000077720000ae
:102258006e7700000066000077720000733d000092
:1022680000660000773d0000006400007672000000
:10227800713b00000064000072730000743b0000b2
:10228800002b000051470000534e0000007500006d
:102298006e720000737400003b000000637300005e
:1022a80065740000006300006461000074000000b1
:1022b800627400006c750000006400006c6c000023
:1022c80075000000646c0000750000007372000067
:1022d80076000000726f0000737400000072000046
:1022e800756e00006f000000727500006e700000cf
:1022f80000720000756e0000643d0000007200006e
:10230800756e0000733d000000720000756e0000dd
:102318003d000000636100006c72000073740000ef
:10232800007300006d730000656e0000006c000013
:10233800616c00006c00000064630000656c0000c4
:1023480000610000636500006c0000006967000020
:102358006e76000074000000696700006e66000079
:1023680074000000696700006e74000074000000cb
:102378006e6100007669000000610000743e000094
:1023880000670000736e0000643b000000730000eb
:102398006d730000736e0000643d00000073000060
:1023a8006572000076650000720000006170000030
:1023b8006e00000061740000240000004154000019
:1023c8002b51000049460000474300004e540000ce
:1023d8003d3000000d0000000d0a00002b430000f6
:1023e800535100003a0000000d0a00002b43000082
:1023f800434c00004b3a0000200000000d0a00008a
:102408002b43000047520000454700003a000000f7
:102418000d0a00002b43000052450000473a000017
:10242800000d00000a2b0000434d0000452000006d
:1024380045520000524f0000520000000d0a0000f3
:102448002b4300004d53000020450000525200006d
:102458004f520000000d00000a2b0000434d000001
:10246800475200003a200000000d00000a2b00002f
:10247800434d0000475300003a20000000000000d0
:102488000d0a00004e4f000020430000415200009a
:1024980052490000455200000d0a0000000d0000de
:1024a8000a2b000050440000502000004445000062
:1024b80041430000540d00000a0000000d0a00000e
:1024c8004f4b00000d0a00000d0a00005354000095
:1024d80041540000450d00000a000000000d0000f6
:1024e8000a3e0000200000000d0a000052450000ce
:1024f8004356000020460000524f00004d3a0000ad
:10250800000d00000a2b0000434d00005449000054
:102518003a200000224d0000452200002c00000057
:102528000d0a00002b4300004d540000493a0000fa
:1025380020220000534d0000222c00000052000011
:10254800494e0000470d00000a000000000d000081
:102558000a4e00004f5200004d4100004c20000080
:10256800504f00005745000052200000444f000023
:10257800574e0000200d00000a0000000d0a000060
:10258800434c00004f530000454400000d0a000072
:10259800000d00000a4100004c52000045410000b7
:1025a80044590000204300004f4e00004e450000f3
:1025b800435400000d0a0000000000000d0a00004e
:1025c800434f00004e4e00004543000054200000d9
:1025d80046410000494c00000d0a0000000d0000b3
:1025e8000a4300004f4e00004e45000043540000cf
:1025f800204f00004b0d00000a0000000d0a0000eb
:102608004445000041430000542000004f4b0000a7
:102618000d0a0000000d00000a4300004c4f0000a6
:1026280053450000204f00004b0d00000a00000039
:10263800414300004b0000000d0a00005345000014
:102648004e44000020460000414900004c0d0000a7
:102658000a0000000d0a0000534500004e44000027
:10266800204f00004b0d00000a0000000d0a00007a
:1026780045520000524f0000520d00000a000000b1
:102688000d0a00004f4b00000d0a0000000d00006d
:102698000a2b0000514900004e4400003a20000077
:1026a80050420000204400004f4e0000450d00003d
:1026b8000a0000000d0a0000436100006c6c000075
:1026c8002052000065610000647900000d0a0000d6
:1026d800000d00000a2b000043500000494e000086
:1026e8003a200000000d00000a2b000043460000bd
:1026f800554e00003a200000000d00000a5200006c
:10270800445900000d0a0000000d00000a000000f6
:102718000d0a0000415400002b430000434c000008
:102728004b000000415400002b51000053430000af
:102738004c4b00003d31000000500000484f0000a5
:102748004e45000054000000004300004f4e0000ba
:102758004600000041540000490d000000410000ff
:10276800542b00005149000053540000415400000c
:102778000d00000041540000265a00000d00000022
:1027880041540000265700000d000000415400008d
:102798002b5100004944000045410000435400000b
:1027a8000d000000415400002b5100004943000077
:1027b8004c4f0000534500000d0000000041000090
:1027c800542b000051490000534800004f570000a7
:1027d800524100003d3100000d000000415400004e
:1027e8002b51000049530000454e0000440d0000e5
:1027f80000410000540d000000410000542b00006f
:1028080043500000494e00003f3b00002b430000ae
:10281800494d0000493b00000d0000000041000048
:10282800542b00004347000052450000473f00007a
:102838003b2b000043520000454700003f3b00008f
:102848002b430000535100003b0d00000000000026
:10285800415400002b43000052450000473f000050
:102868000d000000415400002b43000052450000b9
:10287800473d0000310d000000410000542b0000ce
:10288800514d000047440000413d00004445000010
:102898004c200000494e0000424f0000580d000037
:1028a80000410000542b0000434d00004746000043
:1028b8003d3100003b2b0000637300006373000090
:1028c8003d22000049520000412200003b2b00003d
:1028d800434d0000475200003d300000320d00001b
:1028e80000000000415400002b4300004d47000049
:1028f800523d0000303200000d000000415400003d
:102908002b5100004d470000444100003d220000cb
:10291800444500004c200000414c00004c220000bf
:102928000d00000000410000542b0000514d000034
:1029380047440000413d000022440000454c00008f
:102948002052000045410000442200000d00000014
:1029580000410000542b0000434d00004744000094
:102968003d000000415400002b4300005344000088
:10297800483d0000310d000000410000542b0000cc
:10298800515000004f570000443d0000310d000039
:10299800000d00000a450000525200004f5200008e
:1029a8000d0a0000000000000d0a00000d0a0000da
:1029b8004f4b00000d0a0000000000000d0a000047
:1029c8004f4b00000d0a0000000000006572000077
:1029d800726f0000720000006f6b0000002c000096
:1029e800222200002c220000222c000022220000bb
:1029f8003b00000000220000222c000022220000e0
:102a08002c3b0000000000000d0a000000720000ce
:102a180065730000657400002072000066200000e5
:102a2800647500006520000066720000656500009e
:102a38007a65000064000000617400002b710000da
:102a4800677300006e0d0000000000007265000052
:102a58007365000074200000424f0000520000001f
:102a6800726500007365000074200000455800007e
:102a78005452000000720000657300006574000085
:102a8800204900004f500000555700005200000038
:102a9800726500007365000074200000504f00004c
:102aa8005200000072650000736500007420000089
:102ab8005357000052000000726500007365000063
:102ac80074200000545200004150000052000000e1
:102ad8007265000073650000742000005744000010
:102ae800544f000000720000657300006574000018
:102af80020720000662000003200000072620000b0
:102b08006c6b0000206f00006e20000064750000f0
:102b180065200000746f0000206900006e740000da
:102b280072750000736900006f6e00002064000079
:102b380075720000696e0000672000006175000072
:102b4800746f0000727500006e0000007262000071
:102b58006c6b0000206f00006666000020640000b7
:102b680075650000207400006f200000696e000089
:102b78007472000075730000696f00006e20000019
:102b880064750000726900006e6700002061000033
:102b9800757400006f720000756e0000005300002d
:102ba800494d0000206e00006f7400002072000084
:102bb80065610000647900002064000075720000ff
:102bc800696e000067200000736c000065650000f6
:102bd80070200000006f00006b3a00006174000074
:102be80024640000666c0000740000007472000029
:102bf800616e0000737000006f6e00006465000075
:102c0800722000006e6f00007420000076610000e2
:102c18006c69000064200000005600006973000021
:102c2800696200006c650000207400007261000099
:102c38006e730000706f00006e6400006572000023
:102c480073200000004e00004f5400002052000086
:102c58004541000044590000005200004541000071
:102c680044590000002b000051470000534e00005b
:102c780000720000656c000061790000206c0000a3
:102c880065610000726e0000206c0000696e000033
:102c98006b200000646f00006e6500000072000089
:102ca800656c00006179000020660000616b00001f
:102cb80065200000736500007276000069630000fb
:102cc800652000006c6900006e6b00002064000045
:102cd8006f6e000065000000726500006c61000006
:102ce8007920000069740000736500006c660000bc
:102cf800206c0000696e00006b200000646f00000b
:102d08006e65000000720000656c000061790000cb
:102d18002070000065720000696f0000646900009f
:102d2800632000006c6900006e6b000020640000e6
:102d38006f6e000065000000726500006c610000a5
:102d480079200000617200006d2000006c690000ad
:102d58006e6b0000206400006f6e000065200000ac
:102d68007372000076730000723d000030000000ae
:102d7800726500006c61000079200000617200003b
:102d88006d2000006c6900006e6b0000206400007c
:102d98006f6e0000652000007372000076730000fb
:102da800723d000031000000726500006c61000097
:102db800792000006469000073610000726d0000f2
:102dc800206c0000696e00006b200000646f00003a
:102dd8006e65000000720000656c000061790000fb
:102de80020730000657200007669000063650000ca
:102df800204f00004e2000006c6900006e6b000040
:102e0800206400006f6e000065000000726500001d
:102e18006c61000079200000736500007276000084
:102e280069630000652000004f460000462000004e
:102e38006c6900006e6b0000206400006f6e00007b
:102e48006520000073720000767200003d300000bb
:102e580000720000656c00006179000020730000ba
:102e6800657200007669000063650000204f00006d
:102e780046460000206c0000696e00006b200000d0
:102e8800646f00006e650000207300007276000019
:102e9800723d000031000000726500006c610000a6
:102ea80079200000626c00006f6300006b20000056
:102eb8006c6900006e6b0000206400006f6e0000fb
:102ec80065000000726500006c6100007920000058
:102ed800756e0000626c00006f6300006b200000dc
:102ee8006c6900006e6b0000206400006f6e0000cb
:102ef80065000000726500006c610000795f0000e9
:102f08006f6e00006c79000020730000657200008d
:102f1800762000004f4e0000206c0000696e000013
:102f28006b200000646f00006e65000000720000f6
:102f3800656c0000617900005f6f00006e6c000036
:102f4800792000007365000072760000204f0000b1
:102f580046460000206c0000696e00006b200000ef
:102f6800646f00006e65000000720000656c000070
:102f7800617900002064000069730000617200003c
:102f88006d20000062790000206200007574000066
:102f9800746f00006e2000006c6900006e6b00000a
:102fa800206400006f6e000065000000656e000080
:102fb8006372000069700000746900006f6e0000a1
:102fc800206b000065790000732000007265000026
:102fd800737400006f72000065640000006d0000eb
:102fe80065730000736100006765000020630000de
:102ff8006f72000072750000707400006564000054
:1030080000740000726100006e730000706f0000b1
:103018006e64000065720000206600006c610000ac
:103028006720000072650000737400006f72000072
:10303800656400000072000065730000657400009c
:103048002072000066200000647500006520000002
:1030580066720000656500007a6500006420000063
:103068003100000074720000616e0000737000008f
:103078006f6e000064650000722000006c6900003b
:103088006e6b0000206400006f6e00006500000099
:1030980054720000616e0000737000006f6e0000d3
:1030a80064650000722000006c6900006e6b00000f
:1030b800206e00006f740000206300006f6d000038
:1030c800706c000065740000656400000052000028
:1030d800656c000061790000206c0000696e0000da
:1030e8006b2000006e6f000074200000636f00000a
:1030f8006d7000006c6500007465000064000000dd
:10310800726500007365000074200000726600009c
:103118002031000000720000657300006574000033
:103128002072000066200000330000006174000077
:103138000d00000000610000742b000069700000a1
:10314800723d00003131000035320000303000009f
:103158000d00000000610000742b0000636d00008a
:10316800676600003d3100000d00000000610000ae
:10317800742b000063730000637300003d2200009d
:1031880070630000637000003433000037220000d1
:103198000d00000000610000742b00006372000045
:1031a800656700003d3100000d000000006100006f
:1031b800742b00006367000072650000673d000023
:1031c800310d00000000000061740000653000004f
:1031d8000d0000000061000074260000770d00005b
:1031e80000000000617400002b630000736300009e
:1031f800733d00002249000052410000220d0000ea
:1032080000000000617400002b670000736e00006e
:103218000d000000006f00006b3a000065720000ae
:10322800726f0000720000006f6b00003a610000ce
:1032380074240000636100007463000068000000eb
:1032480065720000726f0000723a0000617400003d
:10325800246300006174000063680000006f0000d0
:103268006b3a00006174000024610000706e000079
:1032780000650000727200006f7200003a61000081
:1032880074240000617000006e000000617400008a
:1032980024610000706e00003d00000065720000af
:1032a800726f0000723a000061740000246100002f
:1032b800706e00003f0000006f6b00003a61000074
:1032c80074240000736500007276000065720000c7
:1032d80000650000727200006f7200003a61000021
:1032e80074240000736500007276000065720000a7
:1032f800006100007424000073650000727600000d
:10330800657200003d00000065720000726f0000e9
:10331800723a0000617400002473000065720000b6
:1033280076650000723f00000065000072720000c0
:103338006f7200003a6100007424000069670000a1
:103348006e760000740000006f6b00003a610000a8
:1033580074240000696700006e76000074000000a5
:103368006174000024690000676e00007674000034
:103378003d0000006f6b00003a61000074240000fb
:1033880061630000656c0000006500007272000057
:103398006f7200003a61000074240000616300004d
:1033a800656c000000610000742400006163000087
:1033b800656c00003d0000006f6b00003a61000082
:1033c8007424000064630000656c00000065000060
:1033d800727200006f7200003a61000074240000ed
:1033e80064630000656c0000006100007424000044
:1033f80064630000656c00003d0000006f6b000016
:103408003a610000742400006c6100006c6c0000dc
:1034180000650000727200006f7200003a610000df
:10342800742400006c6100006c6c000000610000f6
:10343800742400006c6100006c6c00003d0000000a
:103448006f6b000000650000727200006f72000070
:1034580000610000742400006e61000076690000bd
:103468003d000000222b00003739000030330000f7
:1034780032350000353900003738000038220000a6
:10348800000000006f6b00003a6100007424000027
:10349800727500006e00000065720000726f000017
:1034a800723a00006174000024720000756e00001a
:1034b800006f00006b3a0000617400002472000085
:1034c800756e00007300000065720000726f0000e6
:1034d800723a00006174000024720000756e0000ea
:1034e800730000006f6b00003a6100007424000054
:1034f800727500006e6400000065000072720000c2
:103508006f7200003a6100007424000072750000b8
:103518006e640000006f00006b3a000061740000e8
:1035280024720000756e00007000000065720000d3
:10353800726f0000723a000061740000247200008b
:10354800756e0000700000006f6b00003a610000ab
:1035580074240000727500006e6f000000650000a2
:10356800727200006f7200003a610000742400005b
:10357800727500006e6f0000006f00006b3a00006b
:1035880061740000247200006f7300007400000072
:1035980065720000726f0000723a000061740000ea
:1035a800247200006f730000740000006f6b00004d
:1035b8003a61000074240000727500006e63000018
:1035c80000650000727200006f7200003a6100002e
:1035d80074240000727500006e630000006f000024
:1035e8006b3a0000617400002477000062730000e9
:1035f8006600000065720000726f0000723a0000f9
:103608006174000024770000627300006600000007
:103618006f6b00003a6100007424000077620000bc
:103628007374000000650000727200006f72000081
:103638003a6100007424000077620000737400008f
:10364800006f00006b3a00006174000024730000f2
:103658007276000000650000727200006f72000050
:103668003a610000742400007372000076000000c4
:103678006f6b00003a61000074240000646c000065
:103688007500000065720000726f0000723a000059
:1036980061740000246400006c750000006f000075
:1036a8006b3a00006174000024620000746c000032
:1036b8007500000065720000726f0000723a000029
:1036c8006174000024620000746c00007500000042
:1036d8006f6b00003a61000074240000646c000005
:1036e8006c75000000650000727200006f720000c7
:1036f8003a61000074240000646c00006c750000de
:10370800006f00006b3a000061740000246800003c
:10371800666500006e00000065720000726f0000b0
:10372800723a0000617400002468000066650000b9
:103738006e0000006f6b00003a6100007424000006
:10374800726500006e00000065720000726f000074
:10375800723a00006174000024720000656e000077
:10376800006f00006b3a00006174000024610000e3
:10377800726d0000656e0000006500007272000046
:103788006f7200003a61000074240000617200004a
:103798006d6500006e0000006f6b00003a6100006c
:1037a80074240000616c0000636500006e00000076
:1037b80065720000726f0000723a000061740000c8
:1037c800246100006c630000656e0000006f00005b
:1037d8006b3a00006174000024630000646100001b
:1037e8007400000065720000726f0000723a0000f9
:1037f800617400002463000064610000740000002c
:103808006f6b00003a6100007424000063730000cd
:103818006574000000650000727200006f7200009d
:103828003a610000742400006373000065740000ae
:10383800006f00006b3a0000617400002463000010
:10384800636600006700000065720000726f000088
:10385800723a00006174000024630000636600008f
:10386800670000006f6b00003a61000074240000dc
:103878006d64000061740000006500007272000051
:103888006f7200003a610000742400006d6400004b
:1038980061740000006f00006b3a00006174000062
:1038a800246d00007365000074000000657200005c
:1038b800726f0000723a000061740000246d00000d
:1038c80073650000740000006f6b00003a6100002f
:1038d800742400006472000073740000006f00001c
:1038e8006b3a0000617400002464000076720000e6
:1038f800710000006f6b00003a6100007424000042
:103908006677000000650000727200006f720000a8
:103918003a6100007424000066770000006500002a
:10392800727200006f7200003a6100007424000097
:1039380066770000726e0000770000006f6b000071
:103948003a6100007424000072730000657400007e
:1039580000650000727200006f7200003a6100009a
:10396800742400007273000065740000006f00008a
:103978006b3a000061740000246f0000626c000064
:103988006b00000065720000726f0000723a000060
:1039980061740000246f0000626c00006b0000007e
:1039a8006f6b00003a61000074240000726200002e
:1039b8006c6b000000650000727200006f720000fe
:1039c8003a61000074240000726200006c6b000011
:1039d800006f00006b3a0000617400002472000060
:1039e8006c7200006e00000065720000726f0000cb
:1039f800723a000061740000247200006c720000ca
:103a08006e0000006f6b00003a6100007424000033
:103a1800746c0000726e0000006500007272000095
:103a28006f7200003a61000074240000746c00009a
:103a3800726e0000006f00006b3a000061740000b5
:103a480024740000646500006c00000065720000ca
:103a5800726f0000723a0000617400002474000064
:103a6800646500006c0000006f6b00003a610000a4
:103a7800742400007464000069730000006500008d
:103a8800727200006f7200003a6100007424000036
:103a98007464000069730000006f00006b3a000056
:103aa8006174000024630000616c00007273000000
:103ab800740000006f6b00003a610000742400007d
:103ac800736d0000736700000065000072720000eb
:103ad8006f7200003a61000074240000736d0000ea
:103ae80073670000006f00006b3a0000617400000b
:103af80024700000686e000073000000657200000a
:103b0800726f0000723a00006174000024700000b7
:103b1800686e0000730000006f6b00003a610000df
:103b280074240000746d00007367000000650000d5
:103b3800727200006f7200003a6100007424000085
:103b4800746d000073670000006f00006b3a00009e
:103b580061740000247300006d73000064000000ad
:103b68006f6b00003a610000742400006464000078
:103b78006973000000650000727200006f72000037
:103b88003a61000074240000646400006973000056
:103b9800006f00006b3a00006174000024630000ad
:103ba8007271000073650000740000006572000007
:103bb800726f0000723a0000617400002463000014
:103bc8007271000073650000740000006f6b0000e4
:103bd8003a61000074240000696e000073650000fb
:103be8007400000065720000726f0000723a0000f5
:103bf80061740000246900006e73000065740000a1
:103c0800006f00006b3a0000617400002467000038
:103c18006f6400006f00000065720000726f0000a2
:103c2800723a000061740000246700006f640000ad
:103c38006f0000006f6b00003a6100007424000000
:103c480069760000666c0000006500007272000072
:103c58006f7200003a610000742400006976000069
:103c6800666c0000006f00006b3a00006174000091
:103c780024750000736c0000700000006f6b00007a
:103c88003a6100007424000073650000747300003a
:103c98006c70000000650000727200006f72000016
:103ca8003a6100007424000073650000747300001a
:103cb8006c700000006f00006b3a00006174000037
:103cc8002463000072740000797000000065000031
:103cd800727200006f7200003a61000074240000e4
:103ce8006372000074790000700000006f6b0000c0
:103cf8003a610000742400006c73000065740000d1
:103d080000650000727200006f7200003a610000e6
:103d1800742400006c73000065740000006f0000dc
:103d28006b3a0000617400002464000073650000b1
:103d38007400000065720000726f0000723a0000a3
:103d480061740000246400007365000074000000c2
:103d58006f6b00003a610000742400007773000064
:103d68006574000000650000727200006f72000048
:103d78003a61000074240000777300006574000045
:103d8800006f00006b3a00006174000024730000ab
:103d9800736500007400000065720000726f000017
:103da800723a00006174000024730000736500001b
:103db800740000006f6b00003a610000742400007a
:103dc80077730000737700007400000065720000cc
:103dd800726f0000723a00006174000024770000de
:103de8007373000077740000006f00006b3a0000e6
:103df8006174000024660000657100000065000021
:103e0800727200006f7200003a61000074240000b2
:103e180066650000710000006f6b00003a610000e9
:103e2800742400006c6c00006461000074000000e1
:103e380065720000726f0000723a00006174000041
:103e4800246c00006c64000061740000006f0000c6
:103e58006b3a000061740000246c0000626400008a
:103e68006174000000650000727200006f7200004b
:103e78003a610000742400006c6200006461000074
:103e8800740000006f6b00003a61000074240000a9
:103e98006f660000756e0000006500007272000019
:103ea8006f7200003a610000742400006f66000021
:103eb800756e0000006f00006b3a0000617400002e
:103ec80024690000667500006e000000657200003d
:103ed800726f0000723a00006174000024690000eb
:103ee800667500006e0000006f6b00003a6100000c
:103ef800742400006c620000656e0000006500001c
:103f0800727200006f7200003a61000074240000b1
:103f18006c620000656e0000006f00006b3a0000e4
:103f280061740000246c0000626c0000726e000076
:103f380000650000727200006f7200003a610000b4
:103f4800742400006c6200006c7200006e000000b7
:103f58006f6b00003a610000742400006c6e000072
:103f6800646100007400000065720000726f000058
:103f7800723a000061740000246c00006e64000056
:103f880061740000006f00006b3a0000617400006b
:103f9800246d0000726c0000656e00000065000072
:103fa800727200006f7200003a6100007424000011
:103fb8006d7200006c6500006e0000006f6b000001
:103fc8003a610000742400006c7300006e66000003
:103fd80000650000727200006f7200003a61000014
:103fe800742400006c7300006e660000006f00000f
:103ff8006b3a0000617400002474000073650000cf
:104008007400000065720000726f0000723a0000d0
:1040180061740000247400007365000074000000df
:104028006f6b00003a6100007424000062630000b6
:10403800687200006700000065720000726f00007f
:10404800723a000061740000246200006368000096
:1040580072670000006f00006b3a00006174000096
:104068002472000070740000720000006572000085
:10407800726f0000723a0000617400002472000040
:1040880070740000720000006f6b00003a6100005d
:10409800742400006c6d000064730000006500006b
:1040a800727200006f7200003a6100007424000010
:1040b8006c6d000064730000006f00006b3a000034
:1040c800617400002472000072660000656e0000d2
:1040d80000650000727200006f7200003a61000013
:1040e8007424000072720000666500006e00000013
:1040f8006f6b00003a610000742400006d6d0000d1
:104108007367000000650000727200006f720000a3
:104118003a610000742400006d6d000073670000b0
:10412800006f00006b3a0000617400002466000014
:104138006c6500006e0000006d61000078200000d2
:1041480066750000656c00003d00000065720000a7
:10415800726f0000723a000061740000246600006b
:104168006c6500006e0000006f6b00003a61000093
:104178007424000073650000767400000065000078
:10418800727200006f7200003a610000742400002f
:104198007365000076740000006f00006b3a000041
:1041a8006174000024770000627300006100000061
:1041b80065720000726f0000723a000061740000be
:1041c8002477000062730000610000006f6b00003c
:1041d8003a61000074240000696e0000706f0000ee
:1041e8006c00000065720000726f0000723a0000f7
:1041f80061740000246900006e7000006f6c00009c
:10420800006f00006b3a0000617400002469000030
:104218006d730000690000006f6b00003a610000d8
:1042280074240000617300006f70000000650000d6
:10423800727200006f7200003a610000742400007e
:10424800617300006f700000006f00006b3a00009f
:1042580061740000246300006c62000072000000ba
:1042680065720000726f0000723a0000617400000d
:10427800246300006c620000720000006f6b000095
:104288003a61000074240000746c0000746d000032
:104298007200000065720000726f0000723a000040
:1042a80061740000247400006c7400006d720000da
:1042b80000650000727200006f7200003a61000031
:1042c80074240000646600006c740000006f000035
:1042d8006b3a0000617400002464000073690000f8
:1042e8006700000065720000726f0000723a0000fb
:1042f8006174000024640000736900006700000016
:104308006f6b00003a6100007424000066720000c0
:1043180074720000006f00006b3a000061740000c6
:10432800247400006c730000740000006f6b0000c0
:104338003a61000074240000746500006e000000fb
:1043480065720000726f0000723a0000617400002c
:1043580024740000656e0000006f00006b3a0000d6
:1043680061740000246f000072710000656e000027
:1043780000650000727200006f7200003a61000070
:10438800742400006f720000716500006e00000068
:104398006f6b00003a610000742400006363000042
:1043a8006f66000000650000727200006f72000006
:1043b8003a61000074240000636300006f66000027
:1043c800006f00006b3a0000617400002463000075
:1043d800667200007100000065720000726f0000d4
:1043e800723a0000617400002463000066720000e5
:1043f800710000006f6b00003a6100007424000037
:10440800737200007672000000650000727200008e
:104418006f7200003a61000074240000737200009b
:1044280076720000006f00006b3a000061740000b3
:10443800247400006c740000720000006f6b0000b0
:104448003a61000074240000736c0000707400006e
:1044580000650000727200006f7200003a6100008f
:1044680074240000736c000070740000006f00007a
:104478006b3a000061740000246400006475000059
:104488006e00000065720000726f0000723a000052
:104498006174000024640000647500006e00000070
:1044a8006f6b00003a610000742400007361000023
:1044b800656e000000650000727200006f720000f7
:1044c8003a6100007424000073610000656e00000a
:1044d800000d00000a000000006700006e73000075
:1044e8007364000065620000756700003d0000000d
:1044f80000670000736d00006465000062750000cd
:10450800673d00000000000045520000524f0000c7
:10451800523a000020670000736d0000206400001c
:1045280065620000756700002069000073200000c4
:104538006f6600006600000000670000736d0000f1
:104548006f7500007400000000240000504d00004a
:10455800544b000033310000342c0000302c000094
:10456800312c0000312c0000312c0000312c0000cf
:10457800302c0000302c0000302c0000302c0000c3
:10458800302c0000302c0000302c0000302c0000b3
:10459800302c0000302c0000302c0000302c0000a3
:1045a800302c0000302a0000324400000d0a0000c0
:1045b80000610000742b000071730000636c000040
:1045c8006b3d0000310d000000000000536c00003e
:1045d80065650000702000006d6f000064650000d4
:1045e800206500006e7400006572000065640000bc
:1045f80000240000504d0000544b000031360000ec
:10460800312c0000302a0000324400000d0a00005e
:10461800004500006d65000072670000656e0000cf
:104628006379000020720000657300006574000063
:104638003a200000756e0000657800007065000083
:104648006374000065640000206d00006f64000062
:10465800656d0000206f0000666600002e000000f7
:10466800525000004d2000004f4e00000052000044
:10467800504d0000204f000046460000006d00002d
:10468800326d00002e6d0000736b0000006d00009d
:104698007473000000720000656300006569000023
:1046a80076650000722e0000736d000061720000d4
:1046b8007464000072690000766900006e6700008b
:1046c8002e6900006f00000038300000353100000e
:0446d80000000000de
:020000040000fa
:1046dc00c028a9000000000000000000000000003d
:1046ec00fcff3700c068a9000000000000000000bb
:1046fc00000000000000fe00fbff3700c048a900ce
:10470c000000000000000000000000000000fe009f
:10471c00fbff3700c088a90000000000000000006b
:10472c0000000000fcff3700801f7800f00bab008e
:10473c00020032002058800010808800f22bab0061
:10474c0002003200a058800010808800c0a8a90088
:10475c004f007800004006003600f800809fbe0035
:10476c00829fbe00849fbe00869fbe00881f78007b
:10477c000168a900200e22000048eb0022c2bf00f5
:10478c000018a300170032002222a90015003700e0
:10479c0011c0b300100e2200014878009807810068
:1047ac00e40202000000000041582600010444000d
:1047bc00004c780090078100710781000000e80030
:1047cc00f03fb200810f50000300320090078100cf
:1047dc000000e8009007890090078100f03fb200cc
:1047ec0090078900cc020200000000000004e000e9
:1047fc00e7ff3a004f0478004f03be004f02be00a3
:10480c004f01be004f00be003600f900004006000c
:10481c003600f800809fbe00829fbe00849fbe00c1
:10482c00869fbe000188a90021808000a002810023
:10483c00808f50000800310040f7250000804000b8
:10484c001080fb008100e800218088002c0302000e
:10485c0000000000060037002188a9000000eb00d2
:10486c002080880011c0b300300d22000148780070
:10487c004f03be004f02be004f01be004f00be00f2
:10488c003600f900004006003600f800809fbe009c
:10489c00829fbe00849fbe00869fbe00889fbe0084
:1048ac0003c8a900f00d22000048eb0032c2bf0083
:1048bc000018a300010032003222a90011c0b3007d
:1048cc00e00d22000148780024003700d90d2200a9
:1048dc00194478000804e00011003a00f6020200c6
:1048ec0000000000000178003080880040022000a9
:1048fc00800f510019003a00700d22000848780012
:10490c0010c0b300804c78008000eb003180880030
:10491c0040b7250002487800810689000a0037005c
:10492c0088068100f60202000000000041b7250055
:10493c0001044400004c780081068100e03f200017
:10494c00808f500004003e00800681000000e800cb
:10495c008006890001003700804ceb00d202020077
:10496c00000000000004e000d8ff3a004f04be0035
:10497c004f03be004f02be004f01be004f00be00f1
:10498c003600f900004006003600f800809fbe009b
:10499c00829fbe00849fbe00869fbe0003e8a900d4
:1049ac004280800080a925000000410090407800e2
:1049bc000104e000060032000200e800408088009c
:1049cc000180fb003c0302000000000006003700e1
:1049dc0023e8a9000000eb004080880011c0b30060
:1049ec00500d2200014878004f03be004f02be005c
:1049fc004f01be004f00be003600f900004006001b
:104a0c00b0f488000000eb00a0f488002a68a8002d
:104a1c000a68a800000006003600f800809fbe005f
:104a2c00829fbe00849fbe00869fbe000a68a900bc
:104a3c0061808000b0f48000808f50000a0031004b
:104a4c000000eb00a05e8b00800323000080400080
:104a5c001080fb008100e800618088004c0302009c
:104a6c00000000000d0037002a68a90010e8800043
:104a7c00e10f500002003a000000eb0010e8880043
:104a8c000000000000000000000000000000eb002f
:104a9c006080880010002000a0f488004f03be0046
:104aac004f02be004f01be004f00be003600f900a1
:104abc0000400600801f78000a28a90052c2bf00df
:104acc000018a300040032000000000000000000e9
:104adc00000000005222a90052c2bf000028a3000f
:104aec000400320000000000000000000000000084
:104afc0052c2bf004f007800004006003600f8009c
:104b0c00809fbe00829fbe00849fbe00869fbe0019
:104b1c00881f78000b08a9000b08a900b2c2bf00bf
:104b2c000018a3001e003200b222a9001c0037009e
:104b3c00680681001a0302000000000042a3250051
:104b4c0082004400804878000804e8006806890068
:104b5c00600681000000e90002004000a1c0b30023
:104b6c0090cf10000e003a00600681000200400059
:104b7c000048eb00600681000000e8006006890038
:104b8c0060068100500689000000eb006006890079
:104b9c0011c0b300600d22000148780004003700fa
:104bac00de020200000000000004e000e0ff3a001a
:104bbc004f0478004f03be004f02be004f01be00f1
:104bcc004f00be003600f900004006003600f80029
:104bdc00809fbe00829fbe00849fbe00869fbe0049
:104bec000b28a90072808000408225000000410043
:104bfc00904078000104e000060032000200e8005a
:104c0c00708088000180fb005c0302000000000043
:104c1c00060037002b28a9000000eb0070808800ec
:104c2c0011c0b300400d2200014878004f03be00b4
:104c3c004f02be004f01be004f00be003600f9000f
:104c4c0000400600801f78000248a9000000000008
:104c5c00000000000000000081cabf000028a30073
:104c6c0007003200000000000000000000000000ff
:104c7c00c00081000000e800c0008900952aa9004e
:104c8c000000000000000000000000004f00780051
:104c9c0000400600809fbe0005e8a90081808000ce
:104cac00301f2000808f500004003e000100e800ff
:104cbc00808088002248a800060037002248a900fe
:104ccc0010002000a00089000000eb00808088000c
:104cdc0025e8a9004f00be0000400600809fbe00e2
:104cec00829fbe000108a900d20d220092407800dc
:104cfc00f00d2200e1cf50000f003a001048e80000
:104d0c00a3c0b30090cf11000c0036000048eb009c
:104d1c000049eb00e00d22000048eb00800681000a
:104d2c00700689000000eb0080068900700d2200df
:104d3c0001487800010037000048eb00130e2200f8
:104d4c0013417800210e2200e14f51000b003a0074
:104d5c009148e80010c0b300914f100008003600d5
:104d6c00000e2200024878008049eb008048eb00de
:104d7c009107810081078900010037008048eb0012
:104d8c00b30d220013417800e14f510017003a0097
:104d9c00c00681000000e800c0068900c106810041
:104dac0020078100808f500012003600a00d2200d9
:104dbc00024878008049eb000000eb00c006890037
:104dcc0063078100530789006007890000b1250043
:104ddc0081ae250092b32500905878000058eb0066
:104dec00820f500003003200fbff37000000eb0085
:104dfc00c006890070ec80000000e0000800320062
:104e0c0070ec80000000e90070ec880070ec800011
:104e1c000000e00002003a001000200060ec880066
:104e2c0030e88000e10f50000f003a00a05e8300d4
:104e3c00e30f500004003e00a05e83000000e80079
:104e4c00a05e8b00080037000000eb00a05e8b001a
:104e5c0030e888002032210040409000e94f50009b
:104e6c0001003a00154ea9004f01be004f00be00d4
:104e7c0000400600809fbe000368a90062cebf0000
:104e8c000028a3000c003a0090038100713e200022
:104e9c00810f500012003e00900381000000e800da
:104eac009003890090038100810f50000c003600a4
:104ebc001000200009003700900381000000e00082
:104ecc0007003200900381000000e9009003890084
:104edc00900381000000e00001003a00c00389004b
:104eec00000681000000e0005b003200c00581007c
:104efc00e10f50000b003a00352ea900000681008e
:104f0c00ea0f5000060036000106810070072000f1
:104f1c00808f500002003e00546ea9000100370043
:104f2c00546ea800c0058100e20f500007003a0043
:104f3c000106810050052000808f500002003e00c9
:104f4c00546ea90001003700546ea800c005810002
:104f5c00e30f500012003a0001068100700c200093
:104f6c00808f500002003e00352ea8000100370053
:104f7c00352ea90001068100200d2000808f5000e5
:104f8c000600360001068100f0132000808f5000cf
:104f9c0002003e00546ea90001003700546ea800b8
:104fac00c00581000000e0001b003a0001068100f2
:104fbc0050052000808f500014003600546ea8005d
:104fcc000106810030512000808f50000600360011
:104fdc0001068100900cb000808f500002003e0052
:104fec00352ea80001003700352ea90001068100de
:104ffc00c06c2000808f5000060036000106810036
:10500c00100db000808f500002003e00546ea900bd
:10501c0001003700546ea80001068100d005810004
:10502c00808f500004003e00000681000000e80064
:10503c00000689000800370010002000b005890028
:10504c008000eb0001068900a0d980000000a100bf
:10505c00a0d9880061058900b0808000e80f50005d
:10506c0003003e000000e800b08088000500370017
:10507c000000eb00b080880011c0b300200d2200ae
:10508c0001487800600581000000e0000c0032004f
:10509c006105810040058100808f500004003e00b6
:1050ac00600581000000e8006005890004003700fd
:1050bc000000eb006005890010002000300589001d
:1050cc0010002000a003890030f288004f00be00c1
:1050dc0000400600809fbe00821f78000388a90054
:1050ec0050e32000904078000104a200e1c0600071
:1050fc00104178000204a100014871004f017800b2
:10510c004f00be0000400600809fbe00821f78004a
:10511c000608a90021f28000c0808000810f500099
:10512c0062003100652ea900600020004013880049
:10513c0060c2bf000008a300fdff320040138000d6
:10514c00652ea80000000000000000000000000018
:10515c000000000000000000000000000000000043
:10516c000000000000000000000000000000000033
:10517c000000000000000000000000000000000023
:10518c000000000000000000000000000000000013
:10519c000000000000000000000000000000000003
:1051ac0000000000000000000000000000000000f3
:1051bc00000000000000000000000000652ea900a7
:1051cc00200020004013880060c2bf000008a3002c
:1051dc00fdff32004013800000f2800011f28000cd
:1051ec000180fb004013880060c2bf000008a300d0
:1051fc00fdff32004013800000f2800011f28000ad
:10520c004809dd004800de0000007100c808de001f
:10521c000080fb004013880060c2bf000008a300a0
:10522c00fdff32004013800000f2800011f280007c
:10523c000080fb004013880060c2bf000008a30080
:10524c00fdff320040138000f0f180001080fb0065
:10525c004013880060c2bf000008a300fdff3200ad
:10526c0040138000652ea800000000000000000024
:10527c000000000000f2800011f28000610040008c
:10528c00e080480000f2880011f28800f0f1800004
:10529c000000e800f0f18800c08080000000e80009
:1052ac00c08088002621ef00080037002fe1a900fc
:1052bc002608a9000608a9000000eb0030098800a8
:1052cc00c08088001000200040f288004f01780058
:1052dc004f00be0000400600801f780011e1a900bd
:1052ec000621ef0030d380000020a0000030a10088
:1052fc000040a00030d3880010002000c0ec8800d3
:10530c0000e8a9004f007800004006004012880019
:10531c0040c2bf000008a300fdff32004012800015
:10532c0000000600809fbe0062cebf000080fb0024
:10533c004300de000004a200e1d98000610060009f
:10534c000100a10080807000e1d988000128a30031
:10535c000900320040b321001000780061006000a9
:10536c0005003a0062cebf000038a30002003200f4
:10537c000110a000e1d9880062cebf000028a30074
:10538c0004003200609821001074a1000000eb00b2
:10539c0040ea88000268a9004f00be0000400600e9
:1053ac0040158800a0c2bf000008a300fdff32001a
:1053bc0040158000000006008001780025aea90091
:1053cc0000017800060037003280fb004015880091
:1053dc00a0c2bf000008a300fdff320040158000f2
:1053ec00034051000080fb00810f5000f6ff390094
:1053fc0025aea800000006000102780025aea90029
:10540c001080fb0040158800a0c2bf000008a3005c
:10541c00fdff320040158000a822ef00a0c2bf00a3
:10542c000008a300fdff3200401580008001eb0056
:10543c00e14f40000c00320025aea8000000050032
:10544c00a822ef00a0c2bf000008a300fdff32009d
:10545c00401580008180fb0042b421008280400016
:10546c00804878008301e800834078000380fb00cb
:10547c00840f5000f2ff390025aea800f00f050094
:10548c008000eb00c0db2800dbff0700f10f2000e1
:10549c00810f5000faff3a0000000600303a8000fd
:1054ac0001e02f0001006000e004b300303a8800f6
:1054bc0044c7bf00f043b2000064a00044e7b7004b
:1054cc0044c7bf0001ceb3000140600044e7b70001
:1054dc0032002000a1092000800720003374200036
:1054ec00804978008149780082497800103a800020
:1054fc000000a0007205200061042000237420002d
:10550c00814978008249780080497800f6c05000c3
:10551c0043c7bf000047b200814f5000fcff3a0068
:10552c0042c7bf000058a300fdff32000000060078
:10553c0030d08300ea0f500003003a0000ccb300d7
:10554c004467b7000000060044c7bf00f043b20038
:10555c000064a00044e7b700000006006007a90043
:10556c006027a9006047a9006107a80060e7a800b0
:10557c006127a8006147a8006067a9006087a9009f
:10558c006167a9006187a90061a7a90061c7a9008b
:10559c0061e7a80060a7a90060c7a9006207a9007d
:1055ac006227a8006247a8006267a8006287a8006b
:1055bc0062a7a80062c7a80062e7a8006307a8005a
:1055cc006327a8006347a8006367a8006387a80047
:1055dc0063a7a80063c7a80063e7a8006407a80036
:1055ec006427a8006467a90064a7a80064c7a80082
:1055fc0064e7a8006507a8006527a8006547a9000f
:10560c006587a90065a7a90065c7a90065e7a8007b
:10561c006607a8006667a80066a7a9006807a80027
:10562c006827a8006847a8006867a8006887a800d2
:10563c0068a7a80068c7a80068e7a8006907a800c1
:10564c006927a8006947a8006967a8006987a800ae
:10565c0069a7a80069c7a80069e7a8006a07a9009c
:10566c006a27a8006b07a8006b27a8006b47a80047
:10567c006b67a8006c87a9006ca7a8006cc7a80072
:10568c006ce7a8006c87a9006ca7a8006cc7a800e1
:10569c006ce7a8006c87a9006ca7a8006cc7a800d1
:1056ac006ce7a8006c87a9006ca7a8006cc7a800c1
:1056bc00000006000000eb0000198800001b8800a9
:1056cc002054880060548800a0548800c1402000f9
:1056dc00f170880070718800010c2000f171880055
:1056ec007072880070738800700e2000105488004f
:1056fc0000142400a054880095eaa80000000600bd
:10570c0021a3a9002143a90010322000c2cfb3006d
:10571c001048610003ceb300034078002063b7004b
:10572c002083a9002063a9002043a9003032200067
:10573c0010427800ff4062000174a000014878001c
:10574c002343a900104161000204a0000248780024
:10575c0022c3bf0031c8b3000140600022e3b70090
:10576c002223a9002203a90025e3a900513220001d
:10577c0011c061000004a0008048780024e3ef0011
:10578c000000eb00901988007019880080198800bf
:10579c003019880028e3a90029e3a90028c3bf0019
:1057ac00034060000014a00028e3b70021e3a80028
:1057bc000000060000602000b0718800800020000e
:1057cc00b0728800662eef00000022002071880065
:1057dc0080622000a07188001000200020728800d8
:1057ec0080032000a0728800002020002073880015
:1057fc00201c2000a0708800c0a32c0080708800a2
:10580c000000240000718800e08e20008071880068
:10581c00e0072000007288003003200080728800ae
:10582c00c008200000738800354ea9000000060057
:10583c002174200062042000730520008248780047
:10584c008348780042c7a900c4c6bf0001c8b30092
:10585c00014060001045b300c4e6b700c6c6bf00e7
:10586c00014060006045b300c6e6b700d8c6bf0073
:10587c00014060003045b300d8e6b700d6c6bf0083
:10588c00014060004042b300d6e6b700c8c6bf0076
:10589c00014060005042b300c8e6b700dac6bf0052
:1058ac0001406000e043b300dae6b700126a200062
:1058bc0012c06000b044b30000497800d4c6bf00e9
:1058cc0001406000f042b300d4e6b700506d2000f8
:1058dc0090c06000e142b300014878008ac6bf0066
:1058ec0002ccb300024060000004a0008ae6b700be
:1058fc008cc6bf00024060003040b3008ce6b7009d
:10590c003168200011406100fb487000b168200034
:10591c0011406100fd48700084c6bf000240600069
:10592c000044a00084e6b7005168200011406100db
:10593c00fa4870008ec6bf00024060005040b300b1
:10594c008ee6b700f168200011406100e648700057
:10595c001168200011406100ff48700082c6bf0032
:10596c00024060000054a00082e6b70031692000bc
:10597c0011406100ee48700092c6bf00024060000a
:10598c00f040b30092e6b7002174200062042000be
:10599c0073052000824878008348780042c7a8002d
:1059ac000000060091842000f0c8b3001140600094
:1059bc000064a00080487800684ea800686ea800bb
:1059cc002268a8000268a90000000600c228a800ee
:1059dc004a28a8000288a9002288a8000000060016
:1059ec000000eb0000488800104888001090200050
:1059fc00904078007cc8700000322000304888004d
:105a0c00007d200020488800f0c1b3000269b70077
:105a1c0000c9bf0081cfb300014060006040b300fb
:105a2c0000e9b70000000600b11320001113880034
:105a3c000000280000138800111288000012880052
:105a4c00111588000015880000000600a402200033
:105a5c00441188008001eb00031188002062a8002b
:105a6c0021e2a800000000000000000013118800d3
:105a7c0023c2a9002342a80022e2a90022c2a90045
:105a8c0045c8a90045a8a8004588a8002168a80019
:105a9c0023a2a80023e2a9004648a9004628a80092
:105aac004608a8002188a90080202000c011880089
:105abc00831188003062a80031e2a80000000000c9
:105acc00000000009311880033c2a9003342a800e3
:105adc0032e2a90032c2a9004f48a8004f28a90001
:105aec004f08a90023c8a8004fc8a8004fa8a900b8
:105afc004f88a90023e8a90010082000c0128800d4
:105b0c00831288005062a90051e2a8000000000036
:105b1c00000000009312880053c2a9005342a80051
:105b2c0052e2a90052c2a9009186200080cfb30096
:105b3c00114060000024a00080487800f2c8b30037
:105b4c00114061000064a0008048780068c8bf0064
:105b5c00024060000045b30068e8b7002a28a8009e
:105b6c002a48a80053a2a80053e2a9002a68a90059
:105b7c00c415880083158800b062a800b1e2a800a3
:105b8c00000000000000000093158800b3c2a900bb
:105b9c00b342a800b2e2a900b2c2a9006c48a800a6
:105bac006c28a9006c08a8002b08a800b3a2a800b8
:105bbc00b3e2a9006cc8a8006ca8a9006c88a80066
